{
  "contractName": "TeachMeContract",
  "abi": [
    {
      "inputs": [],
      "stateMutability": "nonpayable",
      "type": "constructor"
    },
    {
      "anonymous": false,
      "inputs": [
        {
          "indexed": false,
          "internalType": "string",
          "name": "id",
          "type": "string"
        },
        {
          "indexed": false,
          "internalType": "string",
          "name": "studentId",
          "type": "string"
        },
        {
          "indexed": false,
          "internalType": "string",
          "name": "tutorId",
          "type": "string"
        },
        {
          "indexed": false,
          "internalType": "string",
          "name": "classId",
          "type": "string"
        },
        {
          "indexed": false,
          "internalType": "uint256",
          "name": "startDate",
          "type": "uint256"
        },
        {
          "indexed": false,
          "internalType": "uint256",
          "name": "endDate",
          "type": "uint256"
        },
        {
          "indexed": false,
          "internalType": "uint256",
          "name": "depositAmount",
          "type": "uint256"
        },
        {
          "indexed": false,
          "internalType": "uint256",
          "name": "totalAmount",
          "type": "uint256"
        },
        {
          "indexed": false,
          "internalType": "uint256",
          "name": "feePerSession",
          "type": "uint256"
        },
        {
          "indexed": false,
          "internalType": "string",
          "name": "grade",
          "type": "string"
        },
        {
          "indexed": false,
          "internalType": "string",
          "name": "subject",
          "type": "string"
        },
        {
          "indexed": false,
          "internalType": "uint256",
          "name": "feePerHour",
          "type": "uint256"
        },
        {
          "indexed": false,
          "internalType": "uint256",
          "name": "totalFee",
          "type": "uint256"
        },
        {
          "indexed": false,
          "internalType": "bool",
          "name": "mode",
          "type": "bool"
        }
      ],
      "name": "ContractCreated",
      "type": "event"
    },
    {
      "anonymous": false,
      "inputs": [
        {
          "indexed": false,
          "internalType": "string",
          "name": "id",
          "type": "string"
        },
        {
          "indexed": false,
          "internalType": "enum TeachMeContract.ContractStatus",
          "name": "previousStatus",
          "type": "uint8"
        },
        {
          "indexed": false,
          "internalType": "enum TeachMeContract.ContractStatus",
          "name": "newStatus",
          "type": "uint8"
        },
        {
          "indexed": false,
          "internalType": "address",
          "name": "updatedBy",
          "type": "address"
        }
      ],
      "name": "ContractStatusUpdated",
      "type": "event"
    },
    {
      "anonymous": false,
      "inputs": [
        {
          "indexed": false,
          "internalType": "string",
          "name": "contractId",
          "type": "string"
        },
        {
          "indexed": false,
          "internalType": "string",
          "name": "paymentId",
          "type": "string"
        },
        {
          "indexed": false,
          "internalType": "uint256",
          "name": "amount",
          "type": "uint256"
        },
        {
          "indexed": false,
          "internalType": "enum TeachMeContract.PaymentType",
          "name": "paymentType",
          "type": "uint8"
        },
        {
          "indexed": false,
          "internalType": "enum TeachMeContract.PaymentStatus",
          "name": "paymentStatus",
          "type": "uint8"
        }
      ],
      "name": "PaymentAdded",
      "type": "event"
    },
    {
      "anonymous": false,
      "inputs": [
        {
          "indexed": false,
          "internalType": "string",
          "name": "paymentId",
          "type": "string"
        },
        {
          "indexed": false,
          "internalType": "string",
          "name": "contractId",
          "type": "string"
        },
        {
          "indexed": false,
          "internalType": "uint256",
          "name": "paymentDate",
          "type": "uint256"
        },
        {
          "indexed": false,
          "internalType": "uint256",
          "name": "amount",
          "type": "uint256"
        },
        {
          "indexed": false,
          "internalType": "uint256",
          "name": "feePercent",
          "type": "uint256"
        },
        {
          "indexed": false,
          "internalType": "uint256",
          "name": "priceVND",
          "type": "uint256"
        }
      ],
      "name": "PaymentTuition",
      "type": "event"
    },
    {
      "anonymous": false,
      "inputs": [
        {
          "indexed": false,
          "internalType": "address",
          "name": "owner",
          "type": "address"
        },
        {
          "indexed": false,
          "internalType": "uint256",
          "name": "amount",
          "type": "uint256"
        },
        {
          "indexed": false,
          "internalType": "uint256",
          "name": "timestamp",
          "type": "uint256"
        }
      ],
      "name": "WithdrawExecuted",
      "type": "event"
    },
    {
      "inputs": [
        {
          "internalType": "string",
          "name": "",
          "type": "string"
        }
      ],
      "name": "contracts",
      "outputs": [
        {
          "internalType": "string",
          "name": "id",
          "type": "string"
        },
        {
          "internalType": "string",
          "name": "studentId",
          "type": "string"
        },
        {
          "internalType": "string",
          "name": "tutorId",
          "type": "string"
        },
        {
          "internalType": "string",
          "name": "classId",
          "type": "string"
        },
        {
          "internalType": "uint256",
          "name": "startDate",
          "type": "uint256"
        },
        {
          "internalType": "uint256",
          "name": "endDate",
          "type": "uint256"
        },
        {
          "internalType": "uint256",
          "name": "endDateActual",
          "type": "uint256"
        },
        {
          "internalType": "uint256",
          "name": "depositAmount",
          "type": "uint256"
        },
        {
          "internalType": "uint256",
          "name": "totalAmount",
          "type": "uint256"
        },
        {
          "internalType": "uint256",
          "name": "feePerSession",
          "type": "uint256"
        },
        {
          "internalType": "enum TeachMeContract.ContractStatus",
          "name": "status",
          "type": "uint8"
        }
      ],
      "stateMutability": "view",
      "type": "function",
      "constant": true
    },
    {
      "inputs": [],
      "name": "owner",
      "outputs": [
        {
          "internalType": "address payable",
          "name": "",
          "type": "address"
        }
      ],
      "stateMutability": "view",
      "type": "function",
      "constant": true
    },
    {
      "inputs": [
        {
          "internalType": "string",
          "name": "",
          "type": "string"
        }
      ],
      "name": "payments",
      "outputs": [
        {
          "internalType": "string",
          "name": "id",
          "type": "string"
        },
        {
          "internalType": "uint256",
          "name": "amount",
          "type": "uint256"
        },
        {
          "internalType": "uint256",
          "name": "feePercent",
          "type": "uint256"
        },
        {
          "internalType": "uint256",
          "name": "timestamp",
          "type": "uint256"
        },
        {
          "internalType": "enum TeachMeContract.PaymentType",
          "name": "paymentType",
          "type": "uint8"
        },
        {
          "internalType": "enum TeachMeContract.PaymentStatus",
          "name": "paymentStatus",
          "type": "uint8"
        }
      ],
      "stateMutability": "view",
      "type": "function",
      "constant": true
    },
    {
      "stateMutability": "payable",
      "type": "receive",
      "payable": true
    },
    {
      "inputs": [
        {
          "components": [
            {
              "internalType": "string",
              "name": "id",
              "type": "string"
            },
            {
              "internalType": "string",
              "name": "studentId",
              "type": "string"
            },
            {
              "internalType": "string",
              "name": "tutorId",
              "type": "string"
            },
            {
              "internalType": "string",
              "name": "classId",
              "type": "string"
            },
            {
              "internalType": "uint256",
              "name": "startDate",
              "type": "uint256"
            },
            {
              "internalType": "uint256",
              "name": "endDate",
              "type": "uint256"
            },
            {
              "internalType": "uint256",
              "name": "depositAmount",
              "type": "uint256"
            },
            {
              "internalType": "uint256",
              "name": "totalAmount",
              "type": "uint256"
            },
            {
              "internalType": "uint256",
              "name": "feePerSession",
              "type": "uint256"
            }
          ],
          "internalType": "struct TeachMeContract.ContractParams",
          "name": "params",
          "type": "tuple"
        },
        {
          "components": [
            {
              "internalType": "string",
              "name": "grade",
              "type": "string"
            },
            {
              "internalType": "string",
              "name": "subject",
              "type": "string"
            },
            {
              "internalType": "uint256",
              "name": "feePerHour",
              "type": "uint256"
            },
            {
              "internalType": "uint256",
              "name": "totalFee",
              "type": "uint256"
            },
            {
              "internalType": "bool",
              "name": "mode",
              "type": "bool"
            }
          ],
          "internalType": "struct TeachMeContract.ContractExtraParams",
          "name": "extraParams",
          "type": "tuple"
        }
      ],
      "name": "createContract",
      "outputs": [],
      "stateMutability": "nonpayable",
      "type": "function"
    },
    {
      "inputs": [
        {
          "internalType": "string",
          "name": "_contractId",
          "type": "string"
        },
        {
          "internalType": "enum TeachMeContract.ContractStatus",
          "name": "_newStatus",
          "type": "uint8"
        }
      ],
      "name": "updateContractStatus",
      "outputs": [],
      "stateMutability": "nonpayable",
      "type": "function"
    },
    {
      "inputs": [
        {
          "internalType": "string",
          "name": "_contractId",
          "type": "string"
        },
        {
          "internalType": "string",
          "name": "_id",
          "type": "string"
        },
        {
          "internalType": "address payable",
          "name": "recipient",
          "type": "address"
        },
        {
          "internalType": "uint256",
          "name": "amount",
          "type": "uint256"
        },
        {
          "internalType": "uint256",
          "name": "feePercent",
          "type": "uint256"
        },
        {
          "internalType": "uint256",
          "name": "priceVND",
          "type": "uint256"
        }
      ],
      "name": "paymentTutition",
      "outputs": [],
      "stateMutability": "payable",
      "type": "function",
      "payable": true
    },
    {
      "inputs": [],
      "name": "getBalance",
      "outputs": [
        {
          "internalType": "uint256",
          "name": "",
          "type": "uint256"
        }
      ],
      "stateMutability": "view",
      "type": "function",
      "constant": true
    },
    {
      "inputs": [],
      "name": "withdraw",
      "outputs": [],
      "stateMutability": "nonpayable",
      "type": "function"
    },
    {
      "inputs": [
        {
          "internalType": "uint256",
          "name": "_amount",
          "type": "uint256"
        }
      ],
      "name": "withdrawAmount",
      "outputs": [],
      "stateMutability": "nonpayable",
      "type": "function"
    }
  ],
  "bytecode": "0x6080806040523461002857600080546001600160a01b0319163317905561177b908161002e8239f35b600080fdfe6080604052600436101561001b575b361561001957600080fd5b005b6000803560e01c80630562b9f71461120357806312065fe0146111e75780633ccfd60b146111a557806343ff0dc014610e2b5780638c5b838514610cfe5780638da5cb5b14610cd7578063d26755a714610a42578063e3b000e2146101805763f94687131461008a575061000e565b3461017d57602036600319011261017d5760043567ffffffffffffffff81116101795760206100c06100d39236906004016112f5565b8160405193828580945193849201611341565b810160028152030190206100e68161139e565b90600181015490600281015490600460038201549101549060ff8083169260081c169261011e6040519660c0885260c0880190611444565b94602087015260408601526060850152600281101561016557608084015260038110156101515782935060a08301520390f35b634e487b7160e01b84526021600452602484fd5b634e487b7160e01b85526021600452602485fd5b5080fd5b80fd5b503461017d57604036600319011261017d5760043567ffffffffffffffff8111610179576101b29036906004016112f5565b60248035906006821015610a3e57604051916020928381013360601b908181526014928381526101e181611285565b5190209160405194875195878901966101fb81838a611341565b810181896001938385809552030190200194604051958661021f8b8201809361159c565b0396610233601f19988981018352826112b7565b5190201480156109d9575b156109555761025b8887988b604051938492839251928391611341565b81018481520301902094600a86019485549460ff86169860068a1015610942578b8a61051d57905084896102c26040518481019087825286815261029e81611285565b519020936102b660405193849283019586910161159c565b038781018352826112b7565b519020036104345750505060068710156104215786148015610417575b15610388575b60068610156103745750610349959361035c9386936103529360ff7e47d710318edee65007bfccdf2fe8dc6a17acf7c4c65e42030647d5b85898259b99169060ff191617905560048414610368575b50604051968796608088526080880190611444565b94860190611469565b6040840190611469565b3360608301520390a180f35b60064291015538610334565b634e487b7160e01b60009081526021600452fd5b86605b60a4926040519262461bcd60e51b845260048401528201527f48e1bb8d632073696e68206368e1bb892063c3b3207468e1bb832063687579e160448201527fbb836e207472e1baa16e67207468c3a1692074e1bbab2050454e44494e47207360648201527f616e672041435449564520686fe1bab7632043414e43454c4c454400000000006084820152fd5b50600586146102df565b50634e487b7160e01b8952602160045288fd5b90919250604051908a8201928352815261044d81611285565b519020906040516104758a820192826104698560028c0161159c565b039081018352826112b7565b519020036102e557600686101561050b5760058603156102e55786604a60a4926040519262461bcd60e51b845260048401528201527f4769612073c6b0206368e1bb892063c3b3207468e1bb832063687579e1bb836e60448201527f207472e1baa16e67207468c3a1692074e1bbab2050454e44494e472073616e676064820152690810d05390d15313115160b21b6084820152fd5b634e487b7160e01b8952602160045288fd5b90948a81036106e557896105406040518481019087825286815261029e81611285565b519020036105ff5750505050600686101561050b5760038603610579578861050b5760028514610570575b6102e5565b600495506102e5565b86605460a4926040519262461bcd60e51b845260048401528201527f48e1bb8d632073696e68206368e1bb892063c3b3207468e1bb832063687579e160448201527fbb836e207472e1baa16e67207468c3a1692074e1bbab204143544956452073616064820152731b99c810d3d354131155115117d4d5155111539560621b6084820152fd5b604051908b8201928352815261061481611285565b519020906040516106308b820192826104698560028d0161159c565b5190201461063f575b506102e5565b9098906001190161066357976003851461065a575b38610639565b60049550610654565b60405162461bcd60e51b815260048101889052604f818b01527f4769612073c6b0206368e1bb892063c3b3207468e1bb832063687579e1bb836e60448201527f207472e1baa16e67207468c3a1692074e1bbab204143544956452073616e672060648201526e21a7a6a82622aa22a22faa2aaa27a960891b608482015260a490fd5b905060038a036107cb5750604051908b8201928352815261070581611285565b519020906040516107218b820192826104698560028d0161159c565b5190201490816107c0575b506102e55786605a60a4926040519262461bcd60e51b845260048401528201527f4368e1bb89206769612073c6b0206de1bb9b692063c3b3207468e1bb8320636860448201527f7579e1bb836e207472e1baa16e67207468c3a1692074e1bbab20434f4d504c4560648201527f5445445f53545544454e542073616e6720434f4d504c455445440000000000006084820152fd5b60049150143861072c565b919060028a036108b257610469918c6108089260405191820192835281526107f281611285565b519020938c604051938491820180968d0161159c565b5190201490816108a7575b5061056b5786605b60a4926040519262461bcd60e51b845260048401528201527f4368e1bb892068e1bb8d632073696e68206de1bb9b692063c3b3207468e1bb8360448201527f2063687579e1bb836e207472e1baa16e67207468c3a1692074e1bbab20434f4d60648201527f504c455445445f5455544f522073616e6720434f4d504c4554454400000000006084820152fd5b600491501438610813565b60405162461bcd60e51b8152600481018d9052605e818801527f4b68c3b46e67207468e1bb83207468617920c491e1bb9569207472e1baa16e6760448201527f207468c3a1692063e1bba7612068e1bba37020c491e1bb936e6720c491c3a32060648201527f686fc3a06e207468c3a06e6820686fe1bab76320c491c3a32068e1bba7790000608482015260a490fd5b634e487b7160e01b8e526021600452858efd5b60405162461bcd60e51b8152600481018990526051818401527f4368e1bb892068e1bb8d632073696e6820686fe1bab763206769612073c6b02060448201527f6de1bb9b692063c3b320717579e1bb816e207468e1bbb163206869e1bb876e206064820152706368e1bba963206ec4836e67206ec3a07960781b608482015260a490fd5b50604051888101908582528481526109f081611285565b5190206040518a51600291908b908290610a0b81838f611341565b81018681520301902001604051610a3581610a298d8201809561159c565b038981018352826112b7565b5190201461023e565b8380fd5b5060c036600319011261017d5767ffffffffffffffff600435818111610cd357610a709036906004016112f5565b90602435908111610cd357610a899036906004016112f5565b906001600160a01b03906044358281169190829003610ccf5760643592608435923415610c76576064610abc853461161f565b049081340390348211610c62578880808096959481946064610ade8c3461161f565b049683903414610c59575bf115610c4e57828092918192825416828215610c45575bf115610c3a5760405190600482865160209481610b21879383858d01611341565b81016002815203019020610b35878261148c565b8560018201558460028201554260038201550161010161ffff1982541617905560405182818351610b698183858801611341565b8101600381520301902080549068010000000000000000821015610c265760018201808255821015610c125792869492610bd27fec6703118b9a59725df09e2b29ae8faf10e9b4f6701165a2b266016792f4857398610bf394610be699978c52848c200161148c565b60405196879660c0885260c0880190611444565b9186830390870152611444565b914260408501526060840152608083015260a43560a08301520390a180f35b634e487b7160e01b88526032600452602488fd5b634e487b7160e01b88526041600452602488fd5b6040513d86823e3d90fd5b506108fc610b00565b6040513d84823e3d90fd5b506108fc610ae9565b634e487b7160e01b89526011600452602489fd5b60405162461bcd60e51b815260206004820152602b60248201527f43e1baa76e2067e1bbad69206de1bb9974206cc6b0e1bba36e6720455448206c60448201526a0e1bb9b6e2068c6a16e20360ac1b6064820152608490fd5b8480fd5b8280fd5b503461017d578060031936011261017d57546040516001600160a01b039091168152602090f35b503461017d57602036600319011261017d576004359067ffffffffffffffff821161017d5750610d329036906004016112f5565b6040518181809351602081930191610d4992611341565b810160018152036020019020610d5e8161139e565b610d6a6001830161139e565b91610d776002820161139e565b610d836003830161139e565b9160048101549260058201546006830154600784015491600885015493600986015495600a015460ff16966040519a8b9a610160808d528c01610dc591611444565b8b810360208d0152610dd691611444565b8a810360408c0152610de791611444565b89810360608b0152610df891611444565b96608089015260a088015260c087015260e08601526101008501526101208401526101408301610e2791611469565b0390f35b503461017d576003196040368201126101795760043567ffffffffffffffff91828211610a3e57610120818336030112610a3e576040519161012083018381108582111761119157604052806004013584811161118d57610e9290600436918401016112f5565b8352602481013584811161118d57610eb090600436918401016112f5565b6020840152604481013584811161118d57610ed190600436918401016112f5565b604084015260648101359084821161118d57610ef661010492600436918401016112f5565b60608501526084810135608085015260a481013560a085015260c481013560c085015260e481013560e085015201356101008301528260243511610a3e5760a09060243536030112610cd3576040519160a08301838110828211176111795760405260243560040135818111610ccf57610f78906004369160243501016112f5565b8352602480350135908111610a3e57610f99906004369160243501016112f5565b60208301526024356044810135604084015260648101356060840152608401358015159003610cd35760243560840135608083015280516040518181809351602081930191610fe792611341565b810160018152036020019020918151611000908461148c565b6020820151611012906001850161148c565b6040820151611024906002850161148c565b6060820151611036906003850161148c565b60808201519182600485015560a08101519182600586015582600686015560c08201519283600787015560e08301519384600888015561010084015196876009820155600a0160ff1981541690558351956020850151976040860151956060015196855193602087015195604088015199606089015198608001511515996040519d8e809e6101c080835282016110cc91611444565b9080820390602001526110de91611444565b8d810360408f01526110ef91611444565b8c810360608e015261110091611444565b9460808c015260a08b015260c08a015260e089015261010088015286810361012088015261112d91611444565b85810361014087015261113f91611444565b926101608501526101808401526101a0830152037fd0c67ed7b79ab658426143f52135b72cb3e32ec292b8e592b9b11a92716f119791a180f35b634e487b7160e01b85526041600452602485fd5b8580fd5b634e487b7160e01b86526041600452602486fd5b503461017d578060031936011261017d576111e48180808060018060a01b038154166111d2813314611648565b47905af16111de6116c9565b506116f9565b80f35b503461017d578060031936011261017d57602047604051908152f35b503461017d57602036600319011261017d5780546001600160a01b031660043561122e338314611648565b4781116112485782808080936111e4955af16111de6116c9565b60405162461bcd60e51b815260206004820152601560248201527453e1bb912064c6b0206b68c3b46e6720c491e1bba760581b6044820152606490fd5b6040810190811067ffffffffffffffff8211176112a157604052565b634e487b7160e01b600052604160045260246000fd5b90601f8019910116810190811067ffffffffffffffff8211176112a157604052565b67ffffffffffffffff81116112a157601f01601f191660200190565b81601f8201121561133c5780359061130c826112d9565b9261131a60405194856112b7565b8284526020838301011161133c57816000926020809301838601378301015290565b600080fd5b60005b8381106113545750506000910152565b8181015183820152602001611344565b90600182811c92168015611394575b602083101461137e57565b634e487b7160e01b600052602260045260246000fd5b91607f1691611373565b90604051918260008254926113b284611364565b90818452600194858116908160001461142157506001146113de575b50506113dc925003836112b7565b565b9093915060005260209081600020936000915b8183106114095750506113dc935082010138806113ce565b855488840185015294850194879450918301916113f1565b9150506113dc94506020925060ff191682840152151560051b82010138806113ce565b9060209161145d81518092818552858086019101611341565b601f01601f1916010190565b9060068210156114765752565b634e487b7160e01b600052602160045260246000fd5b919091825167ffffffffffffffff81116112a1576114aa8254611364565b601f8111611554575b50602080601f83116001146114f05750819293946000926114e5575b50508160011b916000199060031b1c1916179055565b0151905038806114cf565b90601f198316958460005282600020926000905b88821061153c57505083600195969710611523575b505050811b019055565b015160001960f88460031b161c19169055388080611519565b80600185968294968601518155019501930190611504565b600083815260208120601f840160051c81019260208510611592575b601f0160051c01915b8281106115875750506114b3565b818155600101611579565b9092508290611570565b6000929181546115ab81611364565b9260019180831690811561160457506001146115c8575b50505050565b90919293945060005260209081600020906000915b8583106115f357505050500190388080806115c2565b8054858401529183019181016115dd565b60ff19168452505050811515909102019150388080806115c2565b8181029291811591840414171561163257565b634e487b7160e01b600052601160045260246000fd5b1561164f57565b60405162461bcd60e51b815260206004820152604660248201527f4368e1bb89206368e1bba72073e1bb9f2068e1bbaf75206de1bb9b692063c3b360448201527f207468e1bb83207468e1bbb163206869e1bb876e206368e1bba963206ec4836e60648201526567206ec3a07960d01b608482015260a490fd5b3d156116f4573d906116da826112d9565b916116e860405193846112b7565b82523d6000602084013e565b606090565b1561170057565b60405162461bcd60e51b815260206004820152601c60248201527f43687579e1bb836e207469e1bb816e207468e1baa5742062e1baa169000000006044820152606490fdfea2646970667358221220b8e7ea43e436001f9a5c2023bb4754b24e5e714c08c038f4b36b1a481b4cf03264736f6c63430008130033",
  "immutableReferences": {},
  "source": "// SPDX-License-Identifier: MIT\r\npragma solidity ^0.8.19;\r\n\r\ncontract TeachMeContract {\r\n    address payable public owner;\r\n\r\n    enum ContractStatus {\r\n        PENDING,\r\n        ACTIVE,\r\n        COMPLETED_TUTOR,\r\n        COMPLETED_STUDENT,\r\n        COMPLETED,\r\n        CANCELLED\r\n    }\r\n    enum PaymentType {\r\n        DEPOSIT,\r\n        FEE_PER_SESSION\r\n    }\r\n    enum PaymentStatus {\r\n        PENDING,\r\n        SUCCESS,\r\n        FAILED\r\n    }\r\n\r\n    struct Payment {\r\n        string id;\r\n        uint256 amount;\r\n        uint256 feePercent;\r\n        uint256 timestamp;\r\n        PaymentType paymentType;\r\n        PaymentStatus paymentStatus;\r\n    }\r\n\r\n    struct Contract {\r\n        string id;\r\n        string studentId;\r\n        string tutorId;\r\n        string classId;\r\n        uint256 startDate;\r\n        uint256 endDate;\r\n        uint256 endDateActual;\r\n        uint256 depositAmount;\r\n        uint256 totalAmount;\r\n        uint256 feePerSession;\r\n        ContractStatus status;\r\n        string[] paymentIds;\r\n    }\r\n\r\n    struct ContractParams {\r\n        string id;\r\n        string studentId;\r\n        string tutorId;\r\n        string classId;\r\n        uint256 startDate;\r\n        uint256 endDate;\r\n        uint256 depositAmount;\r\n        uint256 totalAmount;\r\n        uint256 feePerSession;\r\n    }\r\n\r\n    struct ContractExtraParams {\r\n        string grade;\r\n        string subject;\r\n        uint256 feePerHour;\r\n        uint256 totalFee;\r\n        bool mode;\r\n    }\r\n\r\n    mapping(string => Contract) public contracts; // mapping t id hp ng n hp ng\r\n    mapping(string => Payment) public payments; // mapping t id payment n payment\r\n    mapping(string => string[]) contractToPayments; // mapping t id hp ng n danh sch cc payment\r\n\r\n    event ContractCreated(\r\n        string id,\r\n        string studentId,\r\n        string tutorId,\r\n        string classId,\r\n        uint256 startDate,\r\n        uint256 endDate,\r\n        uint256 depositAmount,\r\n        uint256 totalAmount,\r\n        uint256 feePerSession,\r\n        string grade,\r\n        string subject,\r\n        uint256 feePerHour,\r\n        uint256 totalFee,\r\n        bool mode\r\n    );\r\n\r\n    event ContractStatusUpdated(\r\n        string id,\r\n        ContractStatus previousStatus,\r\n        ContractStatus newStatus,\r\n        address updatedBy\r\n    );\r\n\r\n    event PaymentAdded(\r\n        string contractId,\r\n        string paymentId,\r\n        uint256 amount,\r\n        PaymentType paymentType,\r\n        PaymentStatus paymentStatus\r\n    );\r\n\r\n    event WithdrawExecuted(address owner, uint256 amount, uint256 timestamp);\r\n\r\n    event PaymentTuition(\r\n        string paymentId,\r\n        string contractId,\r\n        uint256 paymentDate,\r\n        uint256 amount,\r\n        uint256 feePercent,\r\n        uint256 priceVND\r\n    );\r\n\r\n    // Thit lp ngi deploy contract l owner\r\n    constructor() {\r\n        owner = payable(msg.sender);\r\n    }\r\n\r\n    // Modifier  kim tra ch owner mi c th gi cc function nht nh\r\n    modifier onlyOwner() {\r\n        require(\r\n            msg.sender == owner,\r\n            unicode'Ch ch s hu mi c th thc hin chc nng ny'\r\n        );\r\n        _;\r\n    }\r\n\r\n    // Modifier kim tra ngi gi l student ca contract\r\n    modifier onlyStudent(string memory _contractId) {\r\n        require(\r\n            keccak256(abi.encodePacked(msg.sender)) ==\r\n                keccak256(abi.encodePacked(contracts[_contractId].studentId)),\r\n            unicode'Ch hc sinh mi c quyn thc hin chc nng ny'\r\n        );\r\n        _;\r\n    }\r\n\r\n    // Modifier kim tra ngi gi l tutor ca contract\r\n    modifier onlyTutor(string memory _contractId) {\r\n        require(\r\n            keccak256(abi.encodePacked(msg.sender)) ==\r\n                keccak256(abi.encodePacked(contracts[_contractId].tutorId)),\r\n            unicode'Ch gia s mi c quyn thc hin chc nng ny'\r\n        );\r\n        _;\r\n    }\r\n\r\n    // Modifier kim tra ngi gi l student hoc tutor ca contract\r\n    modifier onlyStudentOrTutor(string memory _contractId) {\r\n        require(\r\n            keccak256(abi.encodePacked(msg.sender)) ==\r\n                keccak256(abi.encodePacked(contracts[_contractId].studentId)) ||\r\n                keccak256(abi.encodePacked(msg.sender)) ==\r\n                keccak256(abi.encodePacked(contracts[_contractId].tutorId)),\r\n            unicode'Ch hc sinh hoc gia s mi c quyn thc hin chc nng ny'\r\n        );\r\n        _;\r\n    }\r\n\r\n    // Function cho php contract nhn tin\r\n    receive() external payable {}\r\n\r\n    function createContract(\r\n        ContractParams memory params,\r\n        ContractExtraParams memory extraParams\r\n    ) public {\r\n        Contract storage newContract = contracts[params.id];\r\n        newContract.id = params.id;\r\n        newContract.studentId = params.studentId;\r\n        newContract.tutorId = params.tutorId;\r\n        newContract.classId = params.classId;\r\n        newContract.startDate = params.startDate;\r\n        newContract.endDate = params.endDate;\r\n        newContract.endDateActual = params.endDate;\r\n        newContract.depositAmount = params.depositAmount;\r\n        newContract.totalAmount = params.totalAmount;\r\n        newContract.feePerSession = params.feePerSession;\r\n        newContract.status = ContractStatus.PENDING;\r\n\r\n        emit ContractCreated(\r\n            params.id,\r\n            params.studentId,\r\n            params.tutorId,\r\n            params.classId,\r\n            params.startDate,\r\n            params.endDate,\r\n            params.depositAmount,\r\n            params.totalAmount,\r\n            params.feePerSession,\r\n            extraParams.grade,\r\n            extraParams.subject,\r\n            extraParams.feePerHour,\r\n            extraParams.totalFee,\r\n            extraParams.mode\r\n        );\r\n    }\r\n\r\n    function updateContractStatus(\r\n        string memory _contractId,\r\n        ContractStatus _newStatus\r\n    ) public onlyStudentOrTutor(_contractId) {\r\n        Contract storage contractToUpdate = contracts[_contractId];\r\n        ContractStatus currentStatus = contractToUpdate.status;\r\n\r\n        // Kim tra iu kin chuyn i trng thi\r\n        if (currentStatus == ContractStatus.PENDING) {\r\n            // Student c th chuyn t PENDING sang ACTIVE hoc CANCELLED\r\n            if (\r\n                keccak256(abi.encodePacked(msg.sender)) ==\r\n                keccak256(abi.encodePacked(contractToUpdate.studentId))\r\n            ) {\r\n                require(\r\n                    _newStatus == ContractStatus.ACTIVE ||\r\n                        _newStatus == ContractStatus.CANCELLED,\r\n                    unicode'Hc sinh ch c th chuyn trng thi t PENDING sang ACTIVE hoc CANCELLED'\r\n                );\r\n            }\r\n            // Tutor ch c th chuyn t PENDING sang CANCELLED\r\n            else if (\r\n                keccak256(abi.encodePacked(msg.sender)) ==\r\n                keccak256(abi.encodePacked(contractToUpdate.tutorId))\r\n            ) {\r\n                require(\r\n                    _newStatus == ContractStatus.CANCELLED,\r\n                    unicode'Gia s ch c th chuyn trng thi t PENDING sang CANCELLED'\r\n                );\r\n            }\r\n        } else if (currentStatus == ContractStatus.ACTIVE) {\r\n            // Student ch c th chuyn t ACTIVE sang COMPLETED_STUDENT\r\n            if (\r\n                keccak256(abi.encodePacked(msg.sender)) ==\r\n                keccak256(abi.encodePacked(contractToUpdate.studentId))\r\n            ) {\r\n                require(\r\n                    _newStatus == ContractStatus.COMPLETED_STUDENT,\r\n                    unicode'Hc sinh ch c th chuyn trng thi t ACTIVE sang COMPLETED_STUDENT'\r\n                );\r\n\r\n                // Nu tutor  nh du COMPLETED_TUTOR, chuyn sang COMPLETED\r\n                if (contractToUpdate.status == ContractStatus.COMPLETED_TUTOR) {\r\n                    _newStatus = ContractStatus.COMPLETED;\r\n                }\r\n            }\r\n            // Tutor ch c th chuyn t ACTIVE sang COMPLETED_TUTOR\r\n            else if (\r\n                keccak256(abi.encodePacked(msg.sender)) ==\r\n                keccak256(abi.encodePacked(contractToUpdate.tutorId))\r\n            ) {\r\n                require(\r\n                    _newStatus == ContractStatus.COMPLETED_TUTOR,\r\n                    unicode'Gia s ch c th chuyn trng thi t ACTIVE sang COMPLETED_TUTOR'\r\n                );\r\n\r\n                // Nu student  nh du COMPLETED_STUDENT, chuyn sang COMPLETED\r\n                if (\r\n                    contractToUpdate.status == ContractStatus.COMPLETED_STUDENT\r\n                ) {\r\n                    _newStatus = ContractStatus.COMPLETED;\r\n                }\r\n            }\r\n        } else if (currentStatus == ContractStatus.COMPLETED_STUDENT) {\r\n            // Ch tutor mi c th chuyn t COMPLETED_STUDENT sang COMPLETED\r\n            require(\r\n                keccak256(abi.encodePacked(msg.sender)) ==\r\n                    keccak256(abi.encodePacked(contractToUpdate.tutorId)) &&\r\n                    _newStatus == ContractStatus.COMPLETED,\r\n                unicode'Ch gia s mi c th chuyn trng thi t COMPLETED_STUDENT sang COMPLETED'\r\n            );\r\n        } else if (currentStatus == ContractStatus.COMPLETED_TUTOR) {\r\n            // Ch student mi c th chuyn t COMPLETED_TUTOR sang COMPLETED\r\n            require(\r\n                keccak256(abi.encodePacked(msg.sender)) ==\r\n                    keccak256(abi.encodePacked(contractToUpdate.studentId)) &&\r\n                    _newStatus == ContractStatus.COMPLETED,\r\n                unicode'Ch hc sinh mi c th chuyn trng thi t COMPLETED_TUTOR sang COMPLETED'\r\n            );\r\n        } else {\r\n            // Khng cho php thay i trng thi nu contract  COMPLETED hoc CANCELLED\r\n            revert(\r\n                unicode'Khng th thay i trng thi ca hp ng  hon thnh hoc  hy'\r\n            );\r\n        }\r\n\r\n        // Cp nht trng thi v thi gian\r\n        contractToUpdate.status = _newStatus;\r\n\r\n        // Nu trng thi mi l COMPLETED, cp nht endDateActual\r\n        if (_newStatus == ContractStatus.COMPLETED) {\r\n            contractToUpdate.endDateActual = block.timestamp;\r\n        }\r\n\r\n        // Pht ra event khi cp nht trng thi\r\n        emit ContractStatusUpdated(\r\n            _contractId,\r\n            currentStatus,\r\n            _newStatus,\r\n            msg.sender\r\n        );\r\n    }\r\n\r\n    function paymentTutition(\r\n        string memory _contractId,\r\n        string memory _id,\r\n        address payable recipient,\r\n        uint256 amount,\r\n        uint256 feePercent,\r\n        uint256 priceVND\r\n    ) public payable {\r\n        require(msg.value > 0, unicode'Cn gi mt lng ETH ln hn 0');\r\n\r\n        uint256 amountForTutor = msg.value - ((msg.value * feePercent) / 100);\r\n        uint256 amountForOwner = (msg.value * feePercent) / 100;\r\n\r\n        // Chuyn 50% cho ngi nhn\r\n        recipient.transfer(amountForTutor);\r\n\r\n        // Chuyn 50% cn li cho owner ca contract\r\n        owner.transfer(amountForOwner);\r\n\r\n        Payment storage newPayment = payments[_id];\r\n        newPayment.id = _id;\r\n        newPayment.amount = amount;\r\n        newPayment.feePercent = feePercent;\r\n        newPayment.timestamp = block.timestamp;\r\n        newPayment.paymentType = PaymentType.FEE_PER_SESSION;\r\n        newPayment.paymentStatus = PaymentStatus.SUCCESS;\r\n\r\n        contractToPayments[_contractId].push(_id);\r\n\r\n        emit PaymentTuition(\r\n            _id,\r\n            _contractId,\r\n            block.timestamp,\r\n            amount,\r\n            feePercent,\r\n            priceVND\r\n        );\r\n    }\r\n\r\n    // Function  kim tra s d ca contract\r\n    function getBalance() public view returns (uint) {\r\n        return address(this).balance;\r\n    }\r\n\r\n    // Function rt ton b tin v v ca owner\r\n    function withdraw() public onlyOwner {\r\n        uint amount = address(this).balance;\r\n        (bool success, ) = owner.call{value: amount}('');\r\n        require(success, unicode'Chuyn tin tht bi');\r\n    }\r\n\r\n    // Function rt mt lng tin c th v v ca owner\r\n    function withdrawAmount(uint _amount) public onlyOwner {\r\n        require(_amount <= address(this).balance, unicode'S d khng ');\r\n        (bool success, ) = owner.call{value: _amount}('');\r\n        require(success, unicode'Chuyn tin tht bi');\r\n    }\r\n}\r\n",
  "sourcePath": "C:\\code\\teachme\\be\\apps\\transaction-service\\smart-contract\\contracts\\TeachMeContract.sol",
  "compiler": {
    "name": "solc",
    "version": "0.8.19+commit.7dd6d404.Emscripten.clang"
  },
  "schemaVersion": "3.4.16",
  "updatedAt": "2025-03-19T04:21:21.142Z",
  "networkType": "ethereum",
  "devdoc": {
    "kind": "dev",
    "methods": {},
    "version": 1
  },
  "userdoc": {
    "kind": "user",
    "methods": {},
    "version": 1
  }
}